S0100000434152445F4D43552E73726563B6
S11300000C946B000C947D000C947D000C947D008A
S11300100C947D000C947D000C947D000C947D0068
S11300200C947D000C947D000C947D000C947D0058
S11300300C947D000C9471010C9462010C947D006D
S11300400C947D000C947D000C947D000C947D0038
S11300500C947D0007634236B79BD8A71A396856BB
S113006018AEBAAB558C1D3CB7CC5763BD6DEDFDD6
S1130070753EF6177231BF000000803F0800000093
S1130080BE922449123EABAAAA2ABECDCCCC4C3E89
S113009000000080BEABAAAAAA3E00000000BF0078
S11300A00000803F0000000000084178D3BB438774
S11300B0D1133D190E3CC3BD4282AD2B3E68EC8288
S11300C076BED98FE1A93E4C80EFFFBE01C4FF7F0D
S11300D03F000000000011241FBECFE5D8E0DEBFC2
S11300E0CDBF20E0A0E6B0E001C01D92A336B20768
S11300F0E1F70E947F000C9430050C940000CF932C
S1130100DF9300D01F92CDB7DEB78FEF8ABB87BBDA
S113011081BB80E991E09B838A831982CE01019699
S11301200E94BA0000E010E01EC00E9418018BBBC0
S1130130602F80E10E94480188BB0E942B0161E08E
S1130140600F80E1800F0E9448010E943E0182BB43
S11301502FEF83ED90E3215080409040E1F700C001
S113016000000E5F1F4F0A301105FCF2FFCF81B172
S1130170887F08958F929F92AF92BF92CF92DF9221
S1130180EF92FF92CF93DF93009709F443C0FC01F1
S1130190218132812150310920393140E8F5EC01C7
S11301A011B891B18881892B81B929813A8140E0C4
S11301B050E060E072E18AE790E00E940E05690178
S11301C07A0180E1C81AD108E108F108688170E079
S11301D080E090E00E948E029B01AC0160E070E040
S11301E080E890E40E9489039B01AC010E94810194
S11301F04B015C01C701B6010E948E02A501940166
S11302000E94ED010E945F0260B981E0809360006A
S113021080E003C081E001C081E0DF91CF91FF90D5
S1130220EF90DF90CF90BF90AF909F908F90089504
S113023080916000813059F484EA86BF06B607FED7
S1130240FDCF0E94B700883021F480E0089581E05A
S1130250089581E0089580916000813059F484EA22
S113026086BF06B607FEFDCF0E94B700803121F499
S113027080E0089581E0089581E008958091600010
S1130280813021F484E986BF80E0089581E00895F7
S113029080916000813081F463B984E886BF06B63A
S11302A007FEFDCF0E94B700883241F00E94B700DC
S11302B0803331F480E0089581E0089580E008956A
S11302C081E008951F920F920FB60F9211248F931D
S11302D0809162008CB98F910F900FBE0F901F9088
S11302E018951F920F920FB60F9211248F938CB111
S11302F0809361008F910F900FBE0F901F901895FF
S11303005058BB27AA270E9498010C94E2020E942D
S1130310D40238F00E94DB0220F039F49F3F19F434
S113032026F40C94D1020EF4E095E7FB0C94CB0276
S1130330E92F0E94F30258F3BA1762077307840780
S1130340950720F079F4A6F50C9415030EF4E095C6
S11303500B2EBA2FA02D0B01B90190010C01CA017B
S1130360A0011124FF27591B99F0593F50F4503E26
S113037068F11A16F040A22F232F342F4427585F18
S1130380F3CF469537952795A795F0405395C9F730
S11303907EF41F16BA0B620B730B840BBAF09150E8
S11303A0A1F0FF0FBB1F661F771F881FC2F70EC087
S11303B0BA0F621F731F841F48F48795779567955A
S11303C0B795F7959E3F08F0B0CF9395880F08F046
S11303D09927EE0F9795879508950E9401020C9432
S11303E0E2020E94DB0258F00E94D40240F029F499
S11303F05F3F29F00C94CB0251110C9416030C941A
S1130400D1020E94F30268F39923B1F3552391F3C7
S1130410951B550BBB27AA2762177307840738F06F
S11304209F5F5F4F220F331F441FAA1FA9F335D0CC
S11304300E2E3AF0E0E832D091505040E695001C80
S1130440CAF72BD0FE2F29D0660F771F881FBB1F3A
S1130450261737074807AB07B0E809F0BB0B802D18
S1130460BF01FF2793585F4F3AF09E3F510578F044
S11304700C94CB020C9416035F3FE4F3983ED4F340
S1130480869577956795B795F7959F5FC9F7880F18
S1130490911D9695879597F90895E1E0660F771F6A
S11304A0881FBB1F621773078407BA0720F0621BFB
S11304B0730B840BBA0BEE1F88F7E09508950E9426
S11304C0FB0288F09F5798F0B92F9927B751B0F0E5
S11304D0E1F0660F771F881F991F1AF0BA95C9F7C4
S11304E014C0B13091F00E941503B1E008950C944A
S11304F01503672F782F8827B85F39F0B93FCCF3FD
S1130500869577956795B395D9F73EF49095809540
S1130510709561957F4F8F4F9F4F0895E89409C060
S113052097FB3EF490958095709561957F4F8F4F22
S11305309F4F9923A9F0F92F96E9BB279395F69538
S1130540879577956795B795F111F8CFFAF4BB0FB6
S113055011F460FF1BC06F5F7F4F8F4F9F4F16C01A
S1130560882311F096E911C0772321F09EE8872FA4
S1130570762F05C0662371F096E8862F70E060E060
S11305802AF09A95660F771F881FDAF7880F9695D9
S1130590879597F9089597F99F6780E870E060E080
S11305A008959FEF80EC089500240A941616170608
S11305B018060906089500240A9412161306140650
S11305C005060895092E0394000C11F4882352F0B3
S11305D0BB0F40F4BF2B11F460FF04C06F5F7F4F6B
S11305E08F4F9F4F089557FD9058440F551F59F052
S11305F05F3F71F04795880F97FB991F61F09F3F0C
S113060079F087950895121613061406551FF2CF34
S11306104695F1DF08C0161617061806991FF1CF84
S113062086957105610508940895E894BB276627AB
S11306307727CB0197F908950E942F030C94E202C7
S11306400E94D40238F00E94DB0220F0952311F0BE
S11306500C94CB020C94D10211240C9416030E9426
S1130660F30270F3959FC1F3950F50E0551F629FFD
S1130670F001729FBB27F00DB11D639FAA27F00DF7
S1130680B11DAA1F649F6627B00DA11D661F829F1E
S11306902227B00DA11D621F739FB00DA11D621F03
S11306A0839FA00D611D221F749F3327A00D611D20
S11306B0231F849F600D211D822F762F6A2F112402
S11306C09F5750409AF0F1F088234AF0EE0FFF1F35
S11306D0BB1F661F771F881F91505040A9F79E3F8C
S11306E0510580F00C94CB020C9416035F3FE4F3A5
S11306F0983ED4F3869577956795B795F795E795E2
S11307009F5FC1F7FE2B880F911D9695879597F9EA
S11307100895FA01EE0FFF1F309621053105A1F16E
S11307206115710561F48038BFE39B0749F1689452
S11307309038810561F08038BFEF9B0741F0992321
S11307404AF5FF3FE1053105210519F1E8940894C4
S1130750E795D901AA2329F4AB2FBE2FF85FD0F374
S113076010C0FF5F70F4A695E0F7F73950F019F068
S1130770FF3A38F49F779F930DD00F9007FC905861
S1130780089546F00C94D10260E070E080E89FE3A5
S113079008954FE79F775F934F933F932F930E9462
S11307A084042F913F914F915F910E941C030C94FC
S11307B0E10329F416F00C94CB020C9415030C9469
S11307C0D1020E94FB02A8F39638A0F707F80F9213
S11307D0E8942BE33AEA48EB5FE70E9432030F9276
S11307E00F920F924DB75EB70F920E94CC04E4E5CE
S11307F0F0E00E9413044F915F91EF91FF91E59512
S1130800EE1FFF1F49F0FE57E0684427EE0F441F18
S1130810FA95E1F74195550B0E9446040F9007FEA7
S11308200C943A040895DF93CF931F930F93FF9290
S1130830EF92DF927B018C01689406C0DA2EEF01FF
S11308400E942F03FE01E894A591259135914591CD
S11308505591A6F3EF010E949801FE019701A801AA
S1130860DA9469F7DF90EF90FF900F911F91CF9189
S1130870DF9108959B01AC0160E070E080E89FE3A4
S11308800C94ED010C94CB020C9400050E94FB0225
S1130890D8F39923C9F3940F511DA3F391505040F9
S11308A094F059F0882332F0660F771F881F915017
S11308B05040C1F79E3F51052CF7880F911D969526
S11308C0879597F908955F3FACF0983E9CF0BB275D
S11308D0869577956795B79508F4B1609395C1F7B8
S11308E0BB0F58F711F460FFE8CF6F5F7F4F8F4F56
S11308F09F4FE3CF0C94160316F00C9400050C9450
S1130900D10268940C94CB020E94FB02A8F39923B1
S1130910C1F3AEF3DF93CF931F930F93FF92C92FCD
S1130920DD2788232AF02197660F771F881FDAF7BF
S113093020E030E040E85FEB9FE3883920F0803E20
S113094038F021968F770E948101ECE7F0E004C033
S11309500E948101E9EAF0E00E9413048B01BE01C8
S1130960EC01FB2E6F5771097595771F880B990B56
S11309700E94900228E132E741E35FE30E942F03E3
S1130980AF2D9801AE01FF900F911F91CF91DF9190
S11309900E9498010C94E202FA01DC01AA0FBB1F29
S11309A09B01AC01BF5728F42227332744275078F2
S11309B020C0B75190F4AB2F002446953795279566
S11309C0011CA395D2F3002071F0220F331F441FA2
S11309D0B395DAF30ED00C94800161307105A0E870
S11309E08A07B94630F49B01AC016627772788272C
S11309F09078309621F02083318342835383089585
S1130A009F3F31F0915020F4879577956795B7957E
S1130A10880F911D9695879597F90895A1E21A2E4E
S1130A20AA1BBB1BFD010DC0AA1FBB1FEE1FFF1F8E
S1130A30A217B307E407F50720F0A21BB30BE40BDE
S1130A40F50B661F771F881F991F1A9469F7609525
S1130A507095809590959B01AC01BD01CF010895DF
S1070A60F894FFCF34
S9030000FC
