:100000000C942A000C943C000C943C000C943C0092
:100010000C943C000C943C000C943C000C943C0070
:100020000C943C000C943C000C943C000C943C0060
:100030000C943C000C944E000C943F000C943C003B
:100040000C943C000C943C000C943C000C943C0040
:100050000C943C0011241FBECFE5D8E0DEBFCDBF1D
:1000600020E0A0E6B0E001C01D92A236B207E1F7A1
:100070000E943E000C945D000C940000FFCF1F9284
:100080000F920FB60F9211248F93809161008CB95B
:100090008F910F900FBE0F901F9018951F920F9287
:1000A0000FB60F9211248F938CB1809360008F91C3
:0E00B0000F900FBE0F901F901895F894FFCF81
:00000001FF
