S0100000434152445F4D43552E73726563B6
S11300000C942A000C943C000C943C000C943C008E
S11300100C943C000C943C000C943C000C943C006C
S11300200C943C000C943C000C943C000C943C005C
S11300300C943C000C9494010C9485010C943C00A9
S11300400C943C000C943C000C943C000C943C003C
S11300500C943C0011241FBECFE5D8E0DEBFCDBF19
S113006020E0A0E6B0E001C01D92AA36B207E1F795
S11300700E943E000C94A3010C940000E3E6F0E01F
S1130080108281E081831282138214821582168287
S1130090CF010E940A0180E690E00E9479018091DC
S11300A060008F5F80936000F6CF6830A0F5811107
S11300B00BC08AB350E002C0440F551F6A95E2F7A3
S11300C0482B4ABB80E00895813059F487B350E04F
S11300D002C0440F551F6A95E2F7482B47BB80E0E6
S11300E00895823059F484B350E002C0440F551F80
S11300F06A95E2F7482B44BB80E00895833069F4A5
S113010081B350E002C0440F551F6A95E2F7482BB3
S113011041BB80E0089581E0089582E0089568304D
S113012008F074C081111BC0413061F42BB381E02D
S113013090E002C0880F991F6A95E2F7822B8BBB6F
S113014080E008952BB381E090E002C0880F991FEE
S11301506A95E2F7809582238BBB80E00895813015
S1130160D9F4413061F428B381E090E002C0880FF3
S1130170991F6A95E2F7822B88BB80E0089528B323
S113018081E090E002C0880F991F6A95E2F780959C
S1130190822388BB80E008958230D9F4413061F431
S11301A025B381E090E002C0880F991F6A95E2F7B9
S11301B0822B85BB80E0089525B381E090E002C0E6
S11301C0880F991F6A95E2F78095822385BB80E0AA
S11301D008958330E9F4413061F422B381E090E082
S11301E002C0880F991F6A95E2F7822B82BB80E0D8
S11301F0089522B381E090E002C0880F991F6A95A8
S1130200E2F78095822382BB80E0089581E008951F
S113021082E00895CF93DF93009709F466C0EC0160
S11302208B818130C9F441E064E00E94550041E0D3
S113023064E081E00E948F0041E065E081E00E947B
S1130240550041E067E081E00E94550040E066E02F
S113025081E00E94550016C0811114C040E064E0A2
S113026081E00E94550040E065E081E00E94550075
S113027040E067E081E00E94550041E066E081E0F3
S11302800E9455006A8180E2689FF00111249B81DD
S113029080E1989FB0011124988180E8989FA00183
S11302A011249D81292F30E0220F331F220F331F89
S11302B09C81892F90E0880F991F880F991F880FC0
S11302C0991F9E816E2B462B242B822B892B8DB953
S11302D09EB18E81907F869586958695892B8EB961
S11302E08DB180648DB981E001C080E0DF91CF9150
S11302F00895009741F0FC0180818FB9779BFECF70
S11303008FB181E0089580E008951F920F920FB697
S11303100F9211248F93809162008CB98F910F906A
S11303200FBE0F901F9018951F920F920FB60F9249
S113033011248F938CB1809361008F910F900FBE25
S10D03400F901F901895F894FFCF5A
S9030000FC
