:100000000C942A000C943C000C943C000C943C0092
:100010000C943C000C943C000C943C000C943C0070
:100020000C943C000C943C000C943C000C943C0060
:100030000C943C000C947A000C946B000C943C00E3
:100040000C943C000C943C000C943C000C943C0040
:100050000C943C0011241FBECFE5D8E0DEBFCDBF1D
:1000600020E0A0E6B0E001C01D92A836B207E1F79B
:100070000E943E000C9494040C940000CF93DF93F4
:10008000CDB7DEB72E970FB6F894DEBF0FBECDBF4B
:10009000CE0101962EE0FC0111922A95E9F721E0AC
:1000A0002A832C8323E0288740E855E260E070E053
:1000B0004B875C876D877E870E94890062E670E0CF
:1000C000CE0101960E94470262E670E0CE010196E1
:1000D0000E940F02F3CF1F920F920FB60F921124BE
:1000E0008F93809161008CB98F910F900FBE0F900C
:1000F0001F9018951F920F920FB60F9211248F9395
:100100008CB1809360008F910F900FBE0F901F9065
:1001100018950F931F93CF93DF93009709F414C1A1
:10012000FC012081233008F011C13781353008F0FF
:100130000FC13681333008F00DC13581323008F0FF
:100140000BC1EC01222319F0213029F148C062854E
:100150007385848595850E94990320E030E040E80E
:1001600051E40E9427049B01AC0160E074E284EF3B
:100170009AE40E94F80220E030E040E85FE30E9449
:100180008B020E946A03072F182F292F332700BDE7
:1001900069B980E025C062857385848595850E9454
:1001A000990320E030E040E051E40E9427049B01E5
:1001B000AC0160E074E284EF9AE40E94F80220E06F
:1001C00030E040E85FE30E948B020E946A03072F41
:1001D000182F292F332700BD69B980E001C081E0C5
:1001E00090B5906890BD9881913041F018F09230B0
:1001F00061F020C090B59F7B90BD1FC090B59F7BE4
:1002000090BD9BB192609BB918C090B5906490BDB1
:100210009885992319F02985213021F490B59E7F86
:1002200090BD0BC0913011F0211106C090B59160C6
:1002300090BD03C081E001C081E09981913019F443
:100240009AB198609AB99B81913019F49AB19061F2
:100250009AB99A81913031F49AB190649AB99AB16D
:1002600090629AB99C81913019F49AB190689AB9C8
:100270009D81992319F0913029F008C090B5977F9E
:1002800090BD05C090B5986090BD01C081E09E8191
:10029000913059F018F0923079F015C090B59F7EEA
:1002A00090BD90B59F7D90BD0FC090B59F7E90BDD5
:1002B00090B5906290BD08C090B5906190BD90B52A
:1002C000906290BD01C081E09F819230F9F028F4E6
:1002D000992341F0913081F041C0933009F194307D
:1002E00049F13CC090B59D7F90BD90B59B7F90BD7E
:1002F0009AB19B7F9AB933C090B5926090BD90B58A
:100300009B7F90BD9AB19B7F9AB929C090B59D7F84
:1003100090BD90B5946090BD9AB19B7F9AB91FC073
:1003200090B5926090BD90B5946090BD9AB19B7F5E
:100330009AB915C090B5926090BD90B5946090BD8B
:100340009AB194609AB90BC081E009C081E007C0FE
:1003500081E005C081E003C081E001C081E0DF9160
:10036000CF911F910F910895FC01892BD1F08081CD
:100370008330C8F487818530C0F486818330B8F437
:1003800085818230B0F48281811105C05D9BFECFF2
:100390006CB980E00895813071F46093610080E071
:1003A000089581E0089581E0089581E0089581E055
:1003B000089581E0089581E00895009711F1611595
:1003C000710509F1FC0120812330F8F427812530E3
:1003D000F0F426812330E8F425812230E0F4848192
:1003E000811107C05F9BFECF8CB1FB01808380E051
:1003F0000895813091F480916000FB01808380E05A
:10040000089581E0089581E0089581E0089581E0F4
:10041000089581E0089581E0089581E00895EF92C4
:10042000FF921F93CF93DF93009701F16115710540
:10043000F9F0FC0120812330E8F427812530E0F435
:1004400026812330D8F425812230D0F47B01EC01C1
:1004500010E080E004C0CE010E94B4011F5FF701EC
:10046000E10FF11D60816111F6CF0BC081E009C081
:1004700081E007C081E005C081E003C081E001C0E8
:1004800081E0DF91CF911F91FF90EF900895CF927F
:10049000DF92EF92FF920F931F93CF93DF9300971A
:1004A00031F16115710529F1FC012081233018F526
:1004B0002781253010F52681233008F5258122304B
:1004C00000F56B018C01E12CF12C80E00DC0E60100
:1004D000CF0DD11DBE01C8010E94DD0198819D3064
:1004E00011F4E3941882F394EE2089F30BC081E0B9
:1004F00009C081E007C081E005C081E003C081E060
:1005000001C081E0DF91CF911F910F91FF90EF909B
:10051000DF90CF9008955058BB27AA270E94A302CE
:100520000C94ED030E94DF0338F00E94E60320F0F4
:1005300039F49F3F19F426F40C94DC030EF4E09593
:10054000E7FB0C94D603E92F0E94FE0358F3BA1779
:10055000620773078407950720F079F4A6F50C94D9
:1005600020040EF4E0950B2EBA2FA02D0B01B9013B
:1005700090010C01CA01A0011124FF27591B99F019
:10058000593F50F4503E68F11A16F040A22F232F25
:10059000342F4427585FF3CF469537952795A79575
:1005A000F0405395C9F77EF41F16BA0B620B730B1C
:1005B000840BBAF09150A1F0FF0FBB1F661F771F8D
:1005C000881FC2F70EC0BA0F621F731F841F48F442
:1005D000879577956795B795F7959E3F08F0B0CFCB
:1005E0009395880F08F09927EE0F979587950895B2
:1005F0000E940C030C94ED030E94E60358F00E9445
:10060000DF0340F029F45F3F29F00C94D603511129
:100610000C9421040C94DC030E94FE0368F39923DC
:10062000B1F3552391F3951B550BBB27AA276217EE
:100630007307840738F09F5F5F4F220F331F441FFB
:10064000AA1FA9F335D00E2E3AF0E0E832D091502F
:100650005040E695001CCAF72BD0FE2F29D0660F1C
:10066000771F881FBB1F261737074807AB07B0E85F
:1006700009F0BB0B802DBF01FF2793585F4F3AF065
:100680009E3F510578F00C94D6030C9421045F3FF3
:10069000E4F3983ED4F3869577956795B795F795EB
:1006A0009F5FC9F7880F911D9695879597F90895D3
:1006B000E1E0660F771F881FBB1F6217730784076F
:1006C000BA0720F0621B730B840BBA0BEE1F88F77E
:1006D000E09508950E94060488F09F5798F0B92F7E
:1006E0009927B751B0F0E1F0660F771F881F991F67
:1006F0001AF0BA95C9F714C0B13091F00E942004E5
:10070000B1E008950C942004672F782F8827B85FF4
:1007100039F0B93FCCF3869577956795B395D9F7BE
:100720003EF490958095709561957F4F8F4F9F4FC8
:100730000895E89409C097FB3EF4909580957095D4
:1007400061957F4F8F4F9F4F9923A9F0F92F96E91D
:10075000BB279395F695879577956795B795F11192
:10076000F8CFFAF4BB0F11F460FF1BC06F5F7F4F2F
:100770008F4F9F4F16C0882311F096E911C0772341
:1007800021F09EE8872F762F05C0662371F096E84A
:10079000862F70E060E02AF09A95660F771F881F19
:1007A000DAF7880F9695879597F9089597F99F67D7
:1007B00080E870E060E008959FEF80EC08950024E9
:1007C0000A941616170618060906089500240A94B6
:1007D00012161306140605060895092E0394000C3C
:1007E00011F4882352F0BB0F40F4BF2B11F460FFCB
:1007F00004C06F5F7F4F8F4F9F4F089557FD9058F4
:10080000440F551F59F05F3F71F04795880F97FBD4
:10081000991F61F09F3F79F087950895121613068E
:100820001406551FF2CF4695F1DF08C016161706BD
:100830001806991FF1CF86957105610508940895F2
:10084000E894BB2766277727CB0197F908950E9484
:100850003A040C94ED030E94DF0338F00E94E60393
:1008600020F0952311F00C94D6030C94DC03112492
:100870000C9421040E94FE0370F3959FC1F3950F21
:1008800050E0551F629FF001729FBB27F00DB11D14
:10089000639FAA27F00DB11DAA1F649F6627B00DA4
:1008A000A11D661F829F2227B00DA11D621F739F8D
:1008B000B00DA11D621F839FA00D611D221F749F9B
:1008C0003327A00D611D231F849F600D211D822FE2
:1008D000762F6A2F11249F5750409AF0F1F0882309
:1008E0004AF0EE0FFF1FBB1F661F771F881F915036
:1008F0005040A9F79E3F510580F00C94D6030C940C
:1009000021045F3FE4F3983ED4F38695779567958D
:10091000B795F795E7959F5FC1F7FE2B880F911D5F
:0C0920009695879597F90895F894FFCFFD
:00000001FF
